:10000000C0310020592800008D8D000045280000D7
:100010004528000045280000452800000000000099
:10002000000000000000000000000000C9290000DE
:10003000452800000000000061290000452800005C
:10004000812B00003D420000812B0000812B00002D
:10005000812B0000812B0000812B0000812B0000F0
:10006000812B0000812B0000395F0000812B0000F4
:10007000812B0000812B0000812B0000812B0000D0
:10008000812B0000812B0000812B0000812B0000C0
:10009000A1420000812B0000812B0000812B000079
:1000A000812B0000812B0000812B0000812B0000A0
:1000B000812B0000812B0000812B0000812B000090
:1000C000812B0000812B0000812B0000812B000080
:1000D000812B0000812B0000812B0000812B000070
:1000E000812B0000812B0000812B0000812B000060
:1000F000812B0000812B0000812B0000812B000050
:10010000014B1B689B681847C0040020014B1B680B
:100110001B691847C0040020014B1B685B69184726
:10012000C0040020014B1B689B691847C0040020D5
:10013000014B1B68DB691847C0040020014B1B689A
:100140001B6A1847C0040020014B1B689B6A1847B4
:10015000C004002010B4034C2468E468A44610BC1A
:10016000604700BFC004002030B50346114890F935
:100170001C209A4219DD90F924209A4217DA9A1A23
:10018000846AA05C0C4A15569D420DD00E3200299F
:1001900018BF01309442C0B206D129B1013BDBB295
:1001A000012B01D80130C0B230BD0D20FCE700208A
:1001B000FAE700BFB80700207C9E000008B5054B99
:1001C00093F91C30984203DAFFF7CEFF024B1B561F
:1001D000184608BDB80700207C9E000010B51C4CD6
:1001E00094F82C3073B9012384F82C3000F09EF879
:1001F00048B1184BA362D823236284F82430082323
:10020000A361237710BD00F0A7F80028F1D100F01A
:10021000ADF80028EDD100F06BF838B10E4BA362B9
:10022000D823236284F824300423E9E700F06AF835
:100230000028F3D100F070F80028EFD100F080F82A
:100240000028EBD14FF4DF71742000F019F800BFE3
:10025000B8070020B79E00008A9E0000BFF34F8FB2
:100260000549064BCA6802F4E0621343CB60BFF352
:100270004F8F00BFFDE700BF00ED00E00400FA056E
:100280001FB572B6134B5D688DB9FFF7E7FFB2FB80
:10029000F6F2DCB20133002AF9D104F110036B4409
:1002A00003F80C2C0A2234B901A8A847EDE702464E
:1002B00000230A26EDE7631E04AEDCB256FA83F390
:1002C000B0FBF2F602FB1600303003F80C0C30469F
:1002D000E9E700BF480C00204FF08052034BD2F8F2
:1002E00030111960D2F834215A607047840C002014
:1002F000034B1868A0F10F0358425841704700BFE4
:10030000840C0020034B1868A0F10A03584258419E
:10031000704700BF840C0020034B1868A0F10E0347
:1003200058425841704700BF840C0020034B1868A6
:10033000A0F1100358425841704700BF840C0020C0
:10034000044B1868062803D0431C58425841704794
:1003500001207047840C0020034B1868A0F10D03A6
:1003600058425841704700BF840C0020034B186866
:10037000A0F1080358425841704700BF840C002088
:1003800008B5FFF7A9FFBDE80840FFF727BF801AAF
:1003900000F3070038B540B20D4659B21446FFF7D6
:1003A0000DFF0023287020446B7040B238BD00233D
:1003B000036070477047002070474FF0FF30704770
:1003C0004FF0FF30704770474FF0FF30704700200C
:1003D0007047002070470023037070470022FFF72A
:1003E000D6BF002070474FF0FF3070474FF0FF300E
:1003F00070474FF0FF307047704700280CBF6FF018
:10040000150000207047002070470723037000206C
:1004100070470020704700207047034613F8012BF7
:10042000002AFBD1181A01387047000007B50022D6
:100430000023CDE9002304484FF4F012002307F015
:1004400079F803B05DF804FBE806002010B5044617
:10045000104807F09EFD28B1B4FA84F10E4849090E
:1004600007F0ABFD0D4807F094FD28B1621E514224
:100470000B48514107F0A1FD064807F08AFD38B14D
:10048000A31E5942BDE810400648594107F095BDEA
:1004900010BD00BFDC9B0000289F0000C49B000033
:1004A000209F0000189F000008B5064A0648032157
:1004B00007F071FD0220FFF7C9FFBDE8084004F016
:1004C0004BB900BFE0A10000289E00007FB5204886
:1004D000204E07F049FDC4B21F488DF80C4007F0CC
:1004E00043FD3378C5B2A3428DF80D5002D1737825
:1004F000AB421FD000220023CDE900231748002380
:100500004FF4F01207F016F80120FFF79FFF144890
:10051000347002230370BDF80C30A0F805307570FC
:1005200004F06AFA40B90F4A0F48009523460321A8
:1005300008F08CFA04B070BD0C4A0B48012107F09A
:100540002AFD002004B0BDE87040FFF77FBF00BF68
:10055000409F00009C060020389F0000E806002015
:10056000C01D002013A20000289E000028A2000049
:1005700030B56B4A6B486C4C8BB0032107F00BFD18
:10058000694807F006FD054650B96648674A0121EB
:1005900007F001FD2846FFF759FF00200BB030BDE2
:1005A00063484FF4803107F0C0FC034628B1614A2C
:1005B0005C48012108F040FAEFE74FF0A0425E4BA3
:1005C000D2F844175A480B4043F04003C2F844376E
:1005D000D2F8443743F44033C2F8443707F0C4FC40
:1005E000054648B9554A4F48022107F0D4FC284631
:1005F000FFF72CFF08F09BF8204607F0CAFC28B94B
:100600004F4A4848012107F0C6FCC6E7204607F0DC
:10061000C0FC0028F4D04FF480314A4807F085FC34
:1006200049484FF4803107F080FC204607F0B1FCC8
:1006300020B146484FF4B01107F077FC444807F06A
:10064000A8FC20B143484FF4B01107F06EFC3648C7
:1006500007F09FFC20B140484FF4B01107F065FC53
:100660000120FFF7F3FE3D493D4B4B604FF4A003E3
:100670008B60A368DB6933B12B480122984703469E
:1006800020B1384A94E76FF05703FAE72D48364D0A
:1006900007F083FC2C4807F080FC0FCD05AC0FC49D
:1006A0002B68236005A802238DF8253004F08CF810
:1006B000034608B12D4A7BE72D4B029302A804F0B4
:1006C00055FA08B12B4A9CE72B4A1068516803ABD6
:1006D00003C3082103A804F063FA08B1274A90E78E
:1006E000274A1048032107F056FC002400254FF448
:1006F000A4720023CDE90023224822462B4606F0AF
:1007000019FF2148CDE900454FF4F012002306F00F
:1007100011FF4FF0FF314FF0FF3009F056F8F8E7C6
:1007200040A20000289E0000DC9B00006AA200009E
:10073000309F00008CA20000F0F8FCFFB8A200007F
:10074000E6A20000409F0000389F0000289F0000A4
:10075000C49B0000209F0000189F00003814002058
:100760002D040000FBA20000609E000022A30000F8
:10077000AB12CD3444A300009DA3000061A3000090
:1007800078A3000020070020E80600202DE9F04FA4
:1007900091B08407009302F004030293C2F3C203F2
:1007A00003F10103DDF86880039205460E460593C8
:1007B00040F0BA81041D30B1072909D86FF01B0041
:1007C00011B0BDE8F08F01F007063444C6F1080609
:1007D000009B4FF00009591E4FF0040A4FF0FF3301
:1007E0000193CDF810904F46CB4653460DB1009A79
:1007F00022600598002800F3E8809848009A824219
:1008000003D397488242C0F0E080039AA4EB050E20
:1008100092074FEA9E0000F103810F2F00F2B18092
:10082000002D00F0058107F140020DEB020C019A4A
:100830000CF8200C0CF8102C049801300490E7E020
:100840007A285DD84B280ED8472859D829282DD882
:10085000252852D054D820287AD02338D0F1000B44
:100860004BEB000B74E04C382E2849D8DFE800F041
:100870007048484848484848484848484B484848CD
:10088000484848484859484B4B595959704B6D484E
:100890007048184B184848827F4B48484B487F00A7
:1008A00000204FF0000B4FF0040A38E02A38C0B2A5
:1008B000012202FA00F010EA0E0F49D110F0625C3A
:1008C0002FD110EA020B43D06046013C5444B4FBE4
:1008D000FAF40AFB04F4002D61D0A3EB050CA44448
:1008E000B4453FF66BAF002868D1042B47D158F8C8
:1008F000043B2360043404232AE0019A013A019264
:100900004FF0000B24E011F8010C6C2834D111F8E1
:10091000023C00206C2B8346C5D14FF0080A534699
:10092000D3E708F1070828F007080734F8E802AB16
:1009300024F0070435B106982044B0423FF63EAF9C
:10094000C4E900AB08344FF0000B4FF0080A5346DF
:1009500011F8010F002878D0BBF1000F7FF470AFC1
:100960002528F5D1019B013301934FF0010B4FF086
:10097000040AECE7584694E700208346A5E7082BD5
:1009800002D06FF015001BE708F1070828F00708F0
:10099000F8E80223C4E9002308340823D8E768B93B
:1009A000042B02D108F10408A4E7082BE9D108F1CF
:1009B000070828F0070808F10808EDE7059A013A4A
:1009C000059258F8042B009210E7039A900720D55F
:1009D000A4EB050E4FEA9E004FF0010CBEF5007F20
:1009E000CFD20F2FCDD8F5B107F140020DEB020E9B
:1009F000C0B2019A0EF8200C0EF8102CBCF1000FBA
:100A00003FF41AAF60F07F000EF8200C09F10109E5
:100A10000137C5F10802043406924FF6DA7E97E7F3
:100A20004FF0000CDAE7BCF1000F01D00136EFE720
:100A3000029802360028EBD10098CDE90631FFF785
:100A4000ECFCDDE906310644E2E7631BB3F5806F99
:100A500097D23DB9A6F10804E018B1E6349B000036
:100A60009CAD0000029A28609B082B709DF8103006
:100A7000C2B1EB7085F80290B9F1000F05D008A85B
:100A80000022C5F1010C97420ED1C5F101030DF111
:100A900020084FF0000A01930DF1300B574512D199
:100AA000601B8DE66B70E5E710F8013B190608D571
:100AB0000CEB040EB64503F07F033FF67FAE04F85F
:100AC000013B0132DFE7B9F1000F03D098F90020B4
:100AD000002A17DB029BD3B11AF80B2004F8012B74
:100AE0000022019B18191044B0423FF667AE98F8F7
:100AF000000004F8010B00990392204608F08FFFD4
:100B0000039A14440AF1010A08F10108C6E798F8AB
:100B1000002055F822300093029B45F822300098BF
:100B2000FFF77BFC421CDCE76FF00D0048E600BFDE
:100B30002DE9F04F97B000AF90F802A0D7F880B041
:100B40003B62CBF3C0030446FA62BB61894641B9FC
:100B5000457800780AEB800020444D4517D8A0EB7B
:100B60000409E378FB61BAF1000F02D01BF0010F1A
:100B700016D1FB6953BBFB6A1BB13A6A4946204652
:100B800098474D4628465C37BD46BDE8F08F461C69
:100B90003046FFF742FC0130304409F10109DCE73F
:100BA000237862687A62FA6A9900796104EB8301BA
:100BB000002A40F000814D460E4601EB0A094FF035
:100BC00000084E454CD101EB0A0610E01BF0020F65
:100BD000D1D023789A007A6162687A62FA6A04EB6B
:100BE0008301002A77D14D4601EB0A0690461BF09F
:100BF000050F0CBF02230123FB62FB6906EB430ACE
:100C00000BF00203BB625645BCD016F8021B16F867
:100C1000013C54F82390994B994502D3984B994540
:100C200036D3BB69002B40D0786A07F0EBFA002876
:100C30003BD0E9468AB06A46924B53617B6AC2E96F
:100C400006314FF4007313848F4B42F8103F8F48E6
:100C500000234FF4125100F023FD023DCD46D2E7B0
:100C600016F8013BF96254F82300FFF7D6FBD7F8DA
:100C70008430F96A01304BB1D7F8883098453EBFCF
:100C8000D7F8843023F8180008F10108054498E7E4
:100C9000BB6923B1786A07F0B5FA0028C9D11BF007
:100CA000010F05D1FB6AED1AADE7BB6A002BAAD094
:100CB0004846FFF7B2FBD7F8843053B1D7F88830F5
:100CC00098453FBFD7F88420431C22F8183008F11C
:100CD0000108054497E7BAF1000F72D01BF0040633
:100CE00072D0D046002607F1480052463B61B962F7
:100CF00008F095FEB96A3B6901EB0A02BA62FA692B
:100D0000F9695200FA60BA6A02EB41023A610BF0EB
:100D10000202BA603A69B96A8A4257D162787A6245
:100D20001BF0020F32440CBF4FEA580100211BF0A8
:100D3000010FD2B240F09F801BF0040F14BF404659
:100D40000020BB616270A070E1703A6A7969FB6A49
:100D500020469847051EFFF615AFBB6923707B6AD6
:100D60006370FB69E37041463A6AFB6A84F802A04B
:100D700007F148009847B0F10008C0F2BB807B69DA
:100D80003A6AA9EB0A01C91AFB68C91AD7E90A032A
:100D900098470028C0F2B080A84408EB00054FF047
:100DA000000B07F1380AB34572D300213A6AFB6A97
:100DB00008469847E6E656464FF0000807F1380027
:100DC00093E75646D04697E7B04695E7BA6A12F8D9
:100DD000021BBA6212F8015C284A54F825009042BE
:100DE00002D3274A90421ED3BA6932B1786A7B6037
:100DF00007F008FA7B6800288CD1BA6802BB08F1BA
:100E0000280207F1300C08F10100944407F1580260
:100E100052FA80F008F102080CF8101C5FFA88F80A
:100E200000F8105C76E7BA693AB1786A7B6007F03F
:100E3000E9F97B6800287FF46DAF1BF0010F09D042
:100E400006F1280207F13000711C161806F8205C24
:100E5000CEB25FE71BF0040F3FF45CAF08F128024D
:100E600007F1300008F1010102EB000808F8105CFE
:100E70005FFA81F84EE7002063E700BF349B000073
:100E80009CAD0000B2A3000004000001D89D00004A
:100E90001BF80A3087F8373054F82390D7F884309D
:100EA0002BB3D7F888309B4521D2D7F8843033F85C
:100EB0001B803A6AFB6A012107F137009847002836
:100EC0001ADB0544B8F1000F06D14846FFF7A5FA32
:100ED00000F101081FFA88F83A6AFB6A4146484661
:100EE0009847002808DB05440BF1010B5BE74FF046
:100EF0000008DEE7454645E6054643E6014B186037
:100F0000704700BF0405002080B505460E46174611
:100F1000984606F043F8034608F002FEDFF8189002
:100F2000044649F80030424630463946A84754F84E
:100F3000090001F0FFFC00BF080000002DE9F047A8
:100F4000058B04462807904611D4022905F00705B1
:100F500040F0CC80204607F0F4FB78B10138218BBB
:100F6000042811D8DFE800F0C2106D859500012932
:100F70000CBF45F0100545F02005258388F3118846
:100F8000BFF36F8FBDE8F08701F0070AAA4500F0B4
:100F9000A5800027B9463E46A368002B00F0BC8020
:100FA00041F00801218388F31188BFF36F8FA16896
:100FB000002900F0BA800D68002900F0B680D1F851
:100FC0000480334652462046C047002D76D02B6819
:100FD00029461D46F0E701F007035A1F012A1BD8D6
:100FE000002221F00701062B276889B2C4E90022FC
:100FF00009D13B4603E0628B013262831B68002B00
:10100000F9D141F002012183204607F09AFB002824
:101010007AD041F0200176E0042B0AD121F00701BB
:1010200089B22183204607F08CFB10B141F02001EA
:101030002183218B01F0070AAA454FD00027B9462A
:10104000AAE7236921F0070141F00601062DD3F834
:10105000009021832DD1B9F1000F3FD041F008015C
:10106000218388F31188BFF36F8F3A492046C84720
:1010700029E021F00701236941F0040189B2042D20
:10108000D3F804902183E6D000273E464FF0040AAF
:1010900082E721F00701236941F0050189B2052D9E
:1010A000D3F808902183D6D000273E464FF0050A9A
:1010B00072E700273E464FF0060A6DE72B4687E7AA
:1010C000B9F1000FD1D1EFF31188402383F31288D7
:1010D000BFF36F8F238B23F008032383258BEA064E
:1010E0002ED525F01003238305F007056669218BB3
:1010F000002EBFF670AF00232768C4E9003321F04B
:10110000070141F001012183218B01F0070AAA4563
:101110004FF000097FF440AF002F9CD041F0080150
:10112000218388F31188BFF36F8F002FC8D03D68EB
:10113000394633465246204607F02FFB2F46F4E748
:10114000AB067FF51BAF25F02003238305F00705D1
:1011500000E700BFC78700002DE9F047DFF858809F
:10116000044607464FF0010914B93846BDE8F08738
:1011700094FAA4F5B5FA85F509FA05F32E0108EB02
:1011800005156FEA030A24EA03042B7B002BEBD03E
:1011900058F806301B694BB9464404227368284648
:1011A000196807EA0A0700F067FADDE7284698475A
:1011B0000028D9D1F0E700BF389E000030B51049B3
:1011C000104889B0002208F09EFB0F4D0F49002205
:1011D0000023CDE9062300240E23CDE90334CDE915
:1011E00001440B4B00944FF44072284605F03CFC40
:1011F0000849284608F04DFA204609B030BD00BF26
:101200001912000060110020C80C0020C02000202E
:101210001D15000066A40000014805F00FBA00BFCC
:10122000A80700202DE9F04780461F480F4607F029
:1012300074FB0646002830D000252846BDE8F0871C
:10124000237B6BB12368DB680BB12046984723688A
:101250001B69D3B9636804221968204600F00CFAB0
:10126000013610344C45EBD3B8F1000FE5D0002D1A
:10127000E2D02846FFF770FF0546002FF7D0002187
:101280004FF4A47008F0A1FAF1E72046984700282F
:10129000E0D00AFA06F31D43E2E7044CDFF81090B1
:1012A00005464FF0010ADDE754140020389E000087
:1012B000589E0000014B53F8200070475C9F0000CF
:1012C00008B5034608462BB1044A136000F07EFCC3
:1012D000002008BD6FF01500FBE700BF08050020E7
:1012E00010B5044C237813B9034805F0A7F901237E
:1012F000237010BDE51D0020A807002010B504468E
:101300000B4807F00AFB5CB1BFF35B8F094B53E856
:10131000001F013943E80012002AF8D1BFF35B8FA8
:10132000054808F0FCFA0548BDE8104005F086B90C
:101330004C1400205014002060110020A807002049
:101340000020064BBFF35B8F014653E8000F43E8D4
:101350000012002AF9D1BFF35B8F70474C140020B4
:1013600070B5FFF7EDFF084C084E0546B44200D3B8
:1013700070BD63685B792BB123685B6813B1294644
:10138000204698471034F1E7389E0000589E000030
:1013900010B5044C0449204607F062F8034B1C606A
:1013A00010BD00BFA8060020489F00004414002084
:1013B000084A094808B500231370084A1360084A10
:1013C0004FF400411360FFF77BFFBDE80840FFF7D3
:1013D000DFBF00BFE61D0020178900004C1400206D
:1013E00050140020014600220148002307F059B89C
:1013F000A8060020014807F0F2B800BFA8060020A8
:10140000024B0146186807F03EB900BF44140020A3
:10141000014807F073B900BFA806002070B5284B3B
:10142000187800284BD0FFF7E5FF054690B1BFF3D1
:101430005B8F244B53E8001F013943E80012002A58
:10144000F8D1BFF35B8F204C204EB4422DD32846F9
:10145000FFF7D6FF1E4B1F4C1B68002B19DD08F051
:1014600050FA4FF47A72A0FB020302FB0131C30B66
:10147000D4E9002043EA41439B1A4FEAD13140F2BC
:10148000E93261EB0001934271F1000101D3FFF7F2
:1014900067FFD4E9003213F57A7342F10002C4E920
:1014A0000032BDE87040FFF7B3BF63685B7923B1DA
:1014B000236829461B68204698471034C5E770BD4D
:1014C000E51D002050140020389E0000589E0000AA
:1014D0004C1400205811002070B50D4D297861B9C9
:1014E0000120FFF79FFE0B4C0B4EB44206D3FFF7D3
:1014F00095FF0028FBD101232B7070BD63685B79D9
:101500001BB1236820469B6898471034EDE700BF65
:10151000E61D0020389E0000589E000000212DE9A5
:10152000F0470846FFF77EFE044658B340F267686E
:101530004FF0000908F0F4FA1B4B1C4A1B581360CB
:1015400033B11B4B1B68092B02DD1A4805F076F8F6
:10155000194FDFF860A0002544B12046FFF7FCFDDD
:10156000044618B94FF0FF384FF0FF39FFF756FF28
:10157000064628B9B5B942464B46504605F092F8A2
:101580003546E9E74FF0FF384FF0FF39D2E72B68D7
:101590009B691BB100221146284698471035BD4271
:1015A000F5D3E8E7054DFAE70800000048140020ED
:1015B00050140020A8070020589E0000389E00000C
:1015C00013B5184807F0A9F9174B1B7873B1EFF35F
:1015D0001184402383F31288BFF36F8FFFF71EFF40
:1015E00084F31188BFF36F8F02B010BD0F4B1B68DF
:1015F000002BF9D050B900220023CDE900230C487C
:101600004FF40042002305F095FFEDE70928EBD1E8
:10161000074808F084F9074802B0BDE8104005F01B
:101620000DB800BF50140020E61D00204814002013
:1016300060110020A807002010B5064B1B68044667
:1016400098472146A060044806F0AAFFBDE8104074
:10165000FFF7B6BF08050020A8060020044A054B86
:101660009B1AB1EBD30F34BF52F831000020704702
:10167000D89D0000389E0000084BC31A10B41B11FF
:1016800044680133237143689A7143681960436861
:1016900001225A7110BCFFF723BE00BF389E000024
:1016A0002DE9F04F8FB004AFC1F34A28B8600D4662
:1016B00091467B600C0DB8F1000F63D0002607F156
:1016C00014034FF0040B4FF00A0AC7F80C80C7E967
:1016D00007667E620193CDF808B0CDF800A007F14F
:1016E0001C03F96832464846FFF722FAB0F5006F4E
:1016F00003461CD36C468AB0D9F8041004AB2648C4
:10170000C3E9050140F2FF71D9611A464FF4007137
:101710001984224B42F8103F214833464FF41251AE
:10172000FFF7BEFFA5462C37BD46BDE8F08FC0F3DE
:101730000A0804F11700184420F0070080083B60F5
:10174000FFF750FE68F35325044690B13B68154AF5
:10175000C7E9083600F1100107F11403F961CDE97A
:1017600000A3CDF808B0F96807F11C034846FFF75D
:10177000DFF968F353257B68B9682A46204607F0ED
:1017800002F9D0E704F1170020F007008008FFF706
:1017900029FE0446EDE700BF7BA400000400000121
:1017A000F09D00005B8900002DE9F04F87B0DDE976
:1017B0001279DDE9105A0446039193469846BFB169
:1017C000CDF800903B46524610210020CDF81490F1
:1017D000FEF7DCFFB0F5006F06460AD3184A194839
:1017E00040F2FF73022107B0BDE8F04F07F024B9C3
:1017F0003E4605F11700304420F0070004F00704CE
:101800008008FFF7EFFD0BF0070BE40044EA8B14B0
:1018100044EA462444EA0554054640B13FB1CDF8B8
:1018200000903B46524631461030FEF7AFFF039919
:1018300043462246284607B0BDE8F04F07F0A3B85C
:10184000BAA40000F09D0000406820B1034BC01A0C
:1018500040F3CF0070474FF0FF307047D89D000035
:101860000EB403B503AB014653F8042B04480193AF
:1018700001F00CFB02B05DF804EB03B0704700BF51
:101880009B8A0000CA0605D48B064CBF0249034957
:10189000FFF7E6BF704700BFF3A40000F2A400000A
:1018A0002DE9F04F89B09B46149B06939DF84CA000
:1018B000159B0593169B179E049304460D46904670
:1018C000BAF1000F00F09D8006F48073079307F0D3
:1018D00042F806F00209024600283ED0914920460F
:1018E000FFF7BEFF0746B9F1000F08D016F0440F0E
:1018F00035D18D492A462046FFF7B2FF074406F04E
:10190000010353B1894B8A4953F82A20894B204659
:10191000002A08BF1A46FFF7A3FF06F48073002BC6
:1019200049D006F00803002B63D1B8F1000F66D050
:10193000814942462046FFF793FF0546069B3D44FA
:10194000002B6DD1049B002B73D1F30700F1E480D1
:1019500031462046FFF796FFD8E00746C3E7774BAE
:1019600018680028CAD0764B4FF47A791B68B5FB0B
:10197000F3F54FF46163B5FBF0F100FB115509FB82
:1019800005F54FF03C0CB1FBF3F203FB1211B5FB74
:10199000F0FEB1FBFCF300FB1E550CFB131109FB21
:1019A00005F50091B5FBF0F56649CDE901E5204666
:1019B000FFF756FFA2E706F00803EBB1624B63495D
:1019C00053F82A202046FFF74BFF0546B8F1000FD9
:1019D00005D0594942462046FFF742FF0544BBF176
:1019E000000FABD05A495A462046FFF739FF05444D
:1019F000A4E74FF0000BE1E706F00805E6E74546EF
:101A00009CE7BBF1010F069B06D1002B64D1049B20
:101A1000002B7BD000250CE0002BF8D04D485CE07B
:101A20004D48069B4D49224606F0BBFB049B002B0C
:101A300068D0DFF82C81DFF82C91049F3146102FFD
:101A4000204628BF1027FFF71DFF4FF0000B5D4514
:101A500045DC059B49461A782046FFF701FF4FF009
:101A6000010B1BF0070F03D141462046FFF7F8FE9C
:101A70005F453BD9059B494613F80B202046FFF7ED
:101A8000EFFE0BF1010BBBF1100FEAD136492046F6
:101A90004FF0000BFFF7E4FE5A46059B9A5CA2F15B
:101AA00020015F2928BF2E2230492046FFF7D8FEAB
:101AB0000BF1010BBBF1100F1DD01BF0070F03D171
:101AC00041462046FFF7CCFE5F455A46E5D84146E1
:101AD0002046FFF7C5FEEBE71F485546A1E7414604
:101AE0002046FFF7BDFE0BF1010BB0E72049204671
:101AF000FFF7B6FEC5E7059B3B440593049BDB1B44
:101B000004939AD1BAF1000F7FF41FAF204609B0B9
:101B1000BDE8F04F06F0B4BF064A05492046FFF77E
:101B20009FFE15E7FAA40000FEA400006C9F0000D1
:101B300023A50000F5A4000026A500005C140020E9
:101B40005814002007A50000809F00002AA500006F
:101B500030A50000D18A00009B8A00008D2E000075
:101B60003DA5000035A500003FA5000041A50000EF
:101B70003BA5000073B542F20F738B4228BF0B46A2
:101B800005680F4A04460521684605F045FF63686D
:101B90000C495B6806460B22284606F063FF636823
:101BA0003246694628465B6806F05CFF6368064972
:101BB0005B681B22284606F055FF02B070BD00BFCF
:101BC00025A2000060A5000044A50000074A0021EE
:101BD0000123904206D8064A01B901231360054B40
:101BE0001860704740085B000121F2E740420F0097
:101BF000581400205C140020014B01221A70704719
:101C0000E71D0020014B002019607047741400206C
:101C10000148FFF7AFBF00BFB09F000010B5064BF3
:101C200018680C46FFF746FB21460346BDE8104006
:101C300002480F22184700BF74140020B09F000014
:101C4000F8B5094D094B0A4ED5E9004701221A7033
:101C50000CB92C60F8BD214630463A4600F01EF81B
:101C6000241A0644F4E700BF68140020E81D002091
:101C7000E91D002010B9074B18707047064B1B7800
:101C80001BB141F2883007F0A6BBA420002107F069
:101C90009CBD00BFE71D0020E81D00202DE9F04796
:101CA000DFF878901E4F80460E46042499F80050C5
:101CB000A5B907F083FB324682464146284604F028
:101CC000A1F90546504607F081FBE5B101233B70C1
:101CD00099F8003073B93046BDE8F0873246414686
:101CE000002004F08FF90546EFE72046FFF7C2FF1A
:101CF000651E2C46002004F0C9F90028EBD03B7883
:101D0000002BF2D1E7E73B78002BE4D0013C2046E2
:101D1000FFF7B0FF3B78002BC8D1DCE7E81D0020BF
:101D2000E71D00202DE9F04143680C481C686568F8
:101D300000F08EF801232B752568D5E90136D3E92B
:101D400000482F681CB96B681C60BDE8F081214613
:101D500030464246B847241A0644F3E7F49B000095
:101D6000F8B504460B480D4600F072F8002808DB71
:101D7000084F6619B44206D106482122002306F016
:101D8000D4FF2846F8BD14F8011BBB6801485B6806
:101D90009847EFE7F49B0000014B03600020704779
:101DA000F49F00002DE9F84388460521054606F01A
:101DB0004CFF17461E46044610B3DFF8889099F88A
:101DC000001001B307F05FFC4FF0FF33421E43F1F8
:101DD000000305F1180006F041FF041E2FDB414609
:101DE000EB6893B9184A1948022106F01CFE6FF0FF
:101DF000770499F800301BB105F1180006F030FFA8
:101E00002046BDE8F8830C46EAE7013BEB60002B77
:101E1000EFD141B102232B713A46334605F1380028
:101E200004F0CEFDE5E7AB6868699847041EB7BFCC
:101E3000EB6801230133EB60A8BF2B71D9E76FF08A
:101E40000F04DDE7A2200020D5A50000189E0000A9
:101E50002DE9F3474569064625B90024204602B01E
:101E6000BDE8F0870521284606F0EFFE0028F4D0F3
:101E70007069082106F0E9FE074660B3EFF31187A9
:101E8000402383F31288BFF36F8F7569EA682B686C
:101E9000E2B95A070AD4AB68012130469847041EBC
:101EA0000EDA87F31188BFF36F8FD7E7286943698C
:101EB0001B68DB050CD5FFF7CBFF041EEBDAF0E760
:101EC00000232B71EB680133EB60EAE70024F9E7AC
:101ED0006FF00A04E5E73F4E347854B107F0D3FBC6
:101EE000421E67F1000305F1180006F0B7FE041E5C
:101EF0006DDB07F0C8FB10B12B79022B0ED02F69D8
:101F000017B33846FFF7A4FF044648B90121284615
:101F100006F09BFE60B1384606F0A4FE6FF00A049E
:101F20003378002B9AD005F1180006F099FE95E75A
:101F3000BFF35B8F55E8003F43F0040345E80032F0
:101F4000002AF7D1BFF35B8FEB680133EB602B798D
:101F5000022B08D105F1380007F082FB10F00100D8
:101F600001D12871DCE7337843B105F128074FF040
:101F7000FF384FF0FF392B79022B10D0EB68012B83
:101F8000CED8AB68686901219847041EB7BFEB68DB
:101F9000002303F1FF33EB60A8BF2B71C0E70321DF
:101FA000384605F1180A07F033FD504606F058FE92
:101FB0000022CDE900890321384607F02DFD4FF0BE
:101FC000FF324FF0FF33504606F048FED3E76FF084
:101FD0000A0443E7A2200020F8B545690646002D13
:101FE00061D00521284606F030FE00285ED130463B
:101FF00006F0D1FD044600285AD17069082106F088
:1020000024FEE0B17569EFF31187402383F3128852
:10201000BFF36F8F297931B9AB6830469847041EFA
:1020200007DB01232B712B6843F020032B60002377
:10203000EB6087F31188BFF36F8F2046F8BD1E4F0A
:102040003B783BB14FF0FF324FF0FF3305F1180002
:1020500006F004FE6B692BB918496E6105F1380072
:1020600007F0F2FA2979E1B9AB6868699847041E6C
:102070000FDB01232B710023EB60BFF35B8F55E86F
:10208000003F43F0200345E80032002AF7D1BFF3B8
:102090005B8F3B78002BD0D005F1180006F0E0FDF7
:1020A000CBE70024E7E76FF08504C6E70024C4E728
:1020B0006FF00F04C1E700BFA2200020BF8C00001A
:1020C00008B5044806F0C5F8BDE80840024806F027
:1020D000C0B800BFE8A500001DA60000014805F03B
:1020E000F3BA00BFF49F000038B5044618B90F4B8F
:1020F0000F485B6898476168B1F5683F10D0B1F54B
:10210000680F0DD00B4DA9420AD011F46861206808
:1021100007D00146084807F0C7F90023236065602F
:1021200038BD142207F089FCF9E700BF3C06002007
:102130004BA600002C5F5CA99C19002008B520B3B9
:102140004368B3F5683F10D101220368BFF35B8F8A
:1021500053E8001F002903D143E800200028F7D1ED
:10216000BFF35B8F0DD1002008BD094A93420AD00E
:1021700000684FF0FF324FF0FF3304F097F900286A
:10218000F1D00448F0E70448EEE76FF4E040EBE7F5
:102190002C5F5CA9E98FFFFFEA8FFFFF08B5D8B17C
:1021A0004368B3F5683F10D100220368BFF35B8F2B
:1021B00053E8001F012903D143E800200028F7D18C
:1021C000BFF35B8F0BD1002008BD074A934208D0B4
:1021D000006804F0E3F9F6E76FF4E040F4E7034841
:1021E000F2E70348F0E700BF2C5F5CA9E98FFFFF2F
:1021F000EA8FFFFF10B5044618B91D4B1D485B68F8
:1022000098476368B3F5683F2FD0B3F5680F2CD0BB
:10221000194A934219D1236803BB18484FF0FF3283
:102220004FF0FF33214604F013F908B923681BB9B6
:102230000F4B13485B68984720681422002107F071
:10224000FCFB4FF46863636008E0B3F5683F0DD8AA
:102250003A2B03D040F6BA629342DED1206807F0F1
:102260006EF9636843F03A03636010BD054AF3E713
:102270003C0600204BA600002C5F5CA99C190020A6
:1022800071A600003A00003A08B506490648402306
:10229000142207F0FBF8BDE808400449044805F0A3
:1022A00085BA00BF9C1400209C190020FC9F0000F0
:1022B00010A000002DE9F047064600AF0C460029AB
:1022C00036D0E9468AB0D1E90012A3686D462148AC
:1022D000A8464FF0050AC5E90501C5E9072348F8F6
:1022E00010AF1D48424600234FF42151FFF7D8F9A3
:1022F000CD46D4E903126369AD461848C5F810A06D
:10230000C5E90501C5E907231348002342464FF4F8
:102310002151FFF7C5F9CD46E369114A0E48012165
:1023200006F08AFBA3690F4A0B48012106F084FBE3
:10233000012E07D1EFF305830B4A0748103B3146C6
:1023400006F07AFB2146304603F0D0FEBD46BDE8DC
:10235000F08700BF9EA60000109E0000CDA60000E2
:10236000FCA600000BA7000039A7000030BFFFF754
:10237000FDBF00BF2DE9F0410B4EDFF8308006EBCA
:102380000807CC1B054632460949204607F047FBA3
:10239000A01942460021083C07F04FFBC5F88040D9
:1023A00007F10800BDE8F081000000000400000013
:1023B000589E0000074A936893F90E10002907DB26
:1023C000526993421FBF044A536843F080535360DD
:1023D000704700BF901B002000ED00E070B5294C55
:1023E00006460D462848294906F0D7FCA36AD904B9
:1023F0003CD52548264906F0D0FC1720A36A1A05CB
:1024000004D52148234906F0C8FC18201D4CA36AB6
:102410009B0512D51C48204906F0BFFCA36BA26A9D
:10242000100409D51D4A1848012106F005FB1EB10C
:10243000A36A23F40043A3621920124CA36A59052E
:1024400004D51148164906F0A8FC1A20A36ADA053B
:102450000ED50D48134906F0A0FC1B20094A936ACB
:1024600043F47F43936200232B7070BD1620C5E7B1
:10247000A36A9B04F2D504480B4906F08EFC1C208D
:10248000ECE700BF00ED00E0109E00004CA700004C
:1024900062A7000073A7000086A700009FA70000A6
:1024A000B4A70000CFA70000E7A7000010B5204C9C
:1024B0002049214806F071FCA36A990136D51E48CF
:1024C0001E4906F06AFC1E20A36ADA0104D51A48E8
:1024D0001B4906F062FC1F20154CA36A1B0304D5A0
:1024E0001548184906F059FC2120A36A590304D560
:1024F0001148154906F051FC22200D4CA36A9A039D
:1025000004D50D48114906F048FC2320A36ADB03DB
:1025100004D509480E4906F040FC2420044A936A79
:102520006FEA03436FEA1343936210BD1D20CBE7AC
:1025300000ED00E016A80000109E00002EA800008C
:1025400041A800005BA8000079A800009EA8000038
:10255000B8A800002DE9F843364D80468946364834
:102560003649174606F019FCAB6ADE0627D5344912
:10257000314806F012FC1124AB6A1D0704D531491D
:102580002D4806F00AFC12242A4DAB6A980718D58C
:102590002D49294806F001FC6E6BAB6A190646D539
:1025A0002A4A25483346012106F046FAB9F1000FC0
:1025B00003D0AB6A23F08003AB62132403E0102442
:1025C000DAE76FF015061B4DAB6ADA0704D5204930
:1025D000194806F0E2FB1424AB6A9B0604D51D499A
:1025E000154806F0DAFB1524124B9A6AD50602D478
:1025F0009A6A90070AD55B68190507D541463046A7
:1026000000F076FA10B180F309880224094B9A6A27
:10261000920642BF5A6A22F400525A629A6A42F003
:10262000FF029A6200233B702046BDE8F8836FF0FA
:102630001506C2E700ED00E0109E0000E3A80000D0
:10264000F9A8000073A700002CA9000044A900000D
:102650005AA90000E7A700002DE9F041664B8AB0B7
:10266000D3F8048000AF0446C8F30805002686F3BB
:102670001188BFF36F8F02F07F43B3F17F4F07D113
:1026800002F00C03082B12D15C495D4806F085FB73
:10269000002634460023FB71EB1E092B00F28A80D2
:1026A000DFE803F00A80837C8888888888861007A2
:1026B0004CBF0C460126EDE7524951484E4D06F0FD
:1026C0006CFB0023FB71EB6A9A0705D54E494C4819
:1026D00006F063FB002332E0EB6A002B01DA4B4982
:1026E000F5E7EB6A5B00F5D54949454806F055FB2F
:1026F0006B69A26943F480736B61BFF34F8FBFF3C3
:102700006F8F6B6932F8022C23F480736B61BFF317
:102710004F8FBFF36F8F4DF602739A4208D0AB6AAA
:10272000DBB273B3FA1D01212046FFF713FF37E038
:102730002368384A3248012106F07EF92368FA7985
:10274000DAB907F1080504F1200C206861682A460F
:1027500003C2083464451546F7D17A6A002E45D085
:10276000C2F3080121B96FEA52226FEA42227A626B
:1027700007F108011846FFF79DFD2837BD46BDE863
:10278000F081AB6A13F47F4F04D0F91D0120FFF7ED
:1027900025FE05E0AB6AB3F5803F9BD3FFF786FECD
:1027A0000346CCE7FA1D0021BEE7F91D0020EEE745
:1027B00019498CE7194A1A4B18F4F87FE8468AB091
:1027C00018BF13466A461749C2E905134FF4007350
:1027D0001384103D144BD56142F8103F0848002384
:1027E0004FF41151FEF75CFFC54673E722F4FF7208
:1027F00022F00102BBE700BF00ED00E0A7A9000046
:10280000109E0000D2A90000E9A900000AAA000059
:1028100018AA000037AA000053AA00008EA90000E1
:1028200079A9000077AA000004000001044B5A694E
:1028300042F010025A615A6922F008025A61704748
:1028400000ED00E0EFF30880EFF3098101B5724677
:10285000FFF702FF01BD00BF002080F31488BFF323
:102860006F8F0F4880F3088802F050FC00200D495C
:102870000860BFF34F8F00F02BF8402080F31188E1
:1028800009484FF40461401880F30988EFF314807D
:102890000221084380F31488BFF36F8F00F0F0F833
:1028A000C031002094ED00E0002400200749D1F859
:1028B00090200023C2F307221846934200DB7047A2
:1028C000C1F89830C1F8A0000133F6E700ED00E050
:1028D00008B572B6002383F31388FFF7E7FF144BA4
:1028E0004FF0FF32C3F88020C3F88420C3F888205B
:1028F000C3F88C20C3F89020C3F89420C3F8982024
:10290000C3F89C20C3F88021C3F88421C3F8882130
:10291000C3F88C21C3F89021C3F89421C3F89821FF
:10292000C3F89C2162B6BFF34F8FBFF36F8F08BD12
:1029300000E100E0084B9B6883420BD1EFF3058375
:1029400043B1064B5A6842F080525A605A6A22F4E8
:1029500000425A6204F028BB901B002000ED00E00A
:1029600016498A684FF030001044EFF3098C80E874
:10297000F01F402080F31288BFF36F8F104F4FF08D
:1029800000664A698A603E604FF08004141920682E
:102990000C4C2060D2F884000023C2F8843080F30D
:1029A000118804B5104600F009F9BDE8044002F1B1
:1029B000300090E8F01F8CF309887047901B0020CE
:1029C00004ED00E0B81900201EF0040F0CBFEFF377
:1029D0000880EFF30980816911F8021C0229FFD0F9
:1029E00001B5724606F0CEF901BD00BF40B2002825
:1029F00007DB044A4109012300F01F00834042F82D
:102A00002130704700E100E040B200280CDB4309B0
:102A1000064900F01F0020330122824041F82320A4
:102A2000BFF34F8FBFF36F8F704700BF00E100E02F
:102A3000054B420900F01F0053F82220012303FA3E
:102A400000F01040704700BF00E100E040B2D30743
:102A500054BF023100210028ACBF00F16040074A9A
:102A60004FEA4113ACBF00F5614000F00F00DBB24C
:102A7000B4BF135480F80033704700BF14ED00E07A
:102A80000B4A08B50B4B22F07F029A60BFF34F8FC1
:102A9000BFF36F8FD3F8882022F47002C3F8882028
:102AA00003F010FC04F0A0FB00F05EF803F04EFC15
:102AB0000000000000ED00E042F8203C009B42F8DE
:102AC0001C3C0A49019B42F8183C029B42F8143C0A
:102AD00021F001014FF0807342F8043C42F8081CD9
:102AE0000023203A0265C0F884307047090F0000C7
:102AF000094A0346906870B113F1160F006F05D0B4
:102B0000A0F140029A4205D8834203D2814228BFF5
:102B10000020704700207047901B002008B5154624
:102B20000A4A0B4B9060D0F880201A600E4600F0E5
:102B300045F82C4686F309880020064B9847204626
:102B4000002100220023044C204700BF901B0020DE
:102B5000B8190020AB8D0000090F0000014B1022B6
:102B60001A61704700ED00E0044800234021C218BC
:102B70000133302B82F80013F9D1704700E100E0F7
:102B800008B5EFF30583064A103B02EBC30152F888
:102B9000330049688847BDE80840FFF70BBC00BF19
:102BA0000C9C0000024B034A0348012100F08AB844
:102BB000000004200000002020A00000026F054B50
:102BC000403A1A60044A4021C3E901121846012123
:102BD00000F082B8BC19002000000B1508B50346B0
:102BE0001048D0F89020C2F30722013A934207D947
:102BF0000D480E4A012105F01FFF6FF0150008BDBA
:102C0000C0F898300A6822F01F021A4342F01002FE
:102C1000C0F89C208A6842F00102C0F8A020184643
:102C2000EDE700BF00ED00E0089E00008EAA000066
:102C3000F0B50E4685B01F4604460025B5420DDAB4
:102C4000606810B397B1431E18420AD0104A114869
:102C50002B46012105F0F0FE6FF01502104605B07D
:102C6000F0BD1F28F2D921680B42EFD123680193F0
:102C700006F0BEF8A36801A90343D0B20393FFF79F
:102C8000ADFF10F1160FE7D0421C01350C34D5E72B
:102C9000B4AA0000089E0000044B0522C3F894204B
:102CA000BFF34F8FBFF36F8F704700BF00ED00E0A1
:102CB000BFF35F8F024B0022C3F89420704700BF20
:102CC00000ED00E010B5034C01232278FFF7B0FFC0
:102CD000207010BDFA1D002008B50B4A00231278A1
:102CE000FFF7A6FF10F1160F07D0084A0021D2F80F
:102CF0009030C3F30723984200DB08BDC2F8980068
:102D0000C2F8A0100130F2E7FA1D002000ED00E04B
:102D10002DE9F04357485849D0F890300D68C3F377
:102D200007239D4285B000F2A180FFF7C1FF4968EB
:102D30000022954201F10C011AD1504C504F2570E0
:102D40006846FFF729F8DFF83C81DFF83C9106463A
:102D50000025AE421FD1237846490020D1F89020AB
:102D6000C2F3072293427BDBFFF796FF00204CE083
:102D7000C0F8982051F80C3C23F01F03134343F094
:102D80001003C0F89C3051F8043C43F00103C0F834
:102D9000A0300132CDE7009800EB05114FEA051C89
:102DA000CB683B40B3F5000F44D00AD8B3F5001F01
:102DB0002ED0B3F5800F34D0B3F5801F10D001357D
:102DC000C7E7B3F1807F3ED0B3F1007FF7D150F871
:102DD0000C3088684A6806F00BF840F4802009E05F
:102DE00050F80C3088684A6806F002F840F08850C5
:102DF00040F43020039001A92078CDE90123FFF7AA
:102E0000EDFE002828DA6FF0150005B0BDE8F0836C
:102E100050F80C3088684A6805F0EAFF40EA08007C
:102E2000E8E750F80C3088684A6805F0E1FF40EAAE
:102E30000900DFE750F80C3088684A6805F0D8FFD1
:102E400040F08270D6E750F80C3088684A6805F088
:102E5000CFFF40F08870CDE7237801332370AEE7D1
:102E6000C1F89830C1F8A000013377E74FF0FF3088
:102E7000CBE700BF00ED00E02CA00000FA1D002011
:102E80000000F0FF0000081100000207F0B587B055
:102E900007460E4614460021102268461D4606F0DD
:102EA000CCFD02238DF802302A46054B01932146C2
:102EB0006846CDE9047604F0DBFD07B0F0BD00BF45
:102EC000118E000008B5024B1B689847002008BD12
:102ED000C8190020034B044A1860937843F002039A
:102EE00093707047C81900203405002008B50649C2
:102EF000064821F00701C1F1005202F5802205F0D9
:102F0000F8F8002008BD00BF47360020CC1900208B
:102F10000E4A0123C2F840354FF080424FF08051F5
:102F2000C2F87835D1F83001082808D1D1F8341129
:102F3000052904D80648415C09B1C2F838364FF07B
:102F400080430122C3F880250020704700E0014043
:102F5000E6AA000020B1034B800143F001031847AB
:102F6000704700BF109F0000084B70B5C31A0D4694
:102F700007499B10044659430648402205F06DFF5F
:102F80002B4601462046BDE870401847EC1900204A
:102F9000B76DDBB6AC9B000073B50C4C0C4A4023FC
:102FA000041B00930D460B460A49A41061430646D4
:102FB000094805F07DFF011E05DA30462B4602B0B8
:102FC000BDE87040184702B070BD00BFEC1900208A
:102FD000198F0000B76DDBB6AC9B000010B5EFF3A6
:102FE0001184402383F31288BFF36F8F074A13685D
:102FF00023F00201DB07116002D4012006F03FF943
:1030000084F31188BFF36F8F10BD00BF3C1A0020FE
:10301000002270B5012104461046FFF717FD0F4846
:1030200002F028FA0E4B984215D102F033FA2669C5
:103030000C49304605F0D4FB00280BDB0125356434
:103040002469084904F11C0005F0CAFB002801DBD3
:10305000E564002070BD6FF00400FBE76131000003
:103060000000AD0B4CA000001FB500220123CDE9EC
:103070000223094ACDF800D06B46CDF804D005F004
:1030800044FF002805DB4FF480420023684603F02C
:1030900009FB05B05DF804FB378F000030B4104B1E
:1030A0000C2202FB003301460020D3E90E52986344
:1030B000EFF31180402484F31288BFF36F8F1C6CF0
:1030C00004F0C00444F002041C6480F31188BFF3D0
:1030D0006F8F1DB12B46034830BC184730BC70477A
:1030E000EC190020AC9B000010B4EFF311824023D8
:1030F00083F31288BFF36F8F1748016841F0020411
:103100000460C80707D482F31188BFF36F8F0120D2
:1031100010BC02F0D1B94FF08041D1F80C04D1F8C5
:103120000C14C907EFD5EFF3118083F31288BFF3B6
:103130006F8F0A490B6C03F0C00343F002030B646A
:1031400080F31188BFF36F8F82F31188BFF36F8F05
:10315000002010BCFFF7A2BF3C1A0020EC19002091
:1031600010B1012804D07047034B1B6C5B0701D1E1
:10317000FFF794BF704700BFEC1900202DE9F04124
:103180003849BFF35B8F0746012251E8003F41E811
:1031900000200028F9D1BFF35B8F33B9324933489F
:1031A0004B60CB608A6005F02EFB7B1E012B2BD879
:1031B000012F07D14FF08043D3F81C3403F00303F1
:1031C000012B21D006F05FFA0546F8B9284B1B7891
:1031D000E3B14FF080430222C3F808230646DFF82C
:1031E00094804FF08044D4F81824D4F81834D203D3
:1031F00015D503F00303012B01D0012F0FD155B3D7
:1032000086F31188BFF36F8FBDE8F081EFF311866D
:10321000402383F31288BFF36F8F0125DFE7ADB141
:10322000304605F0D6FDD4F81835002BDBD1D4F8A4
:103230000421002AD7D0C4F80431D4F80431012382
:10324000C4F81835C8F88031A360CCE700212120EC
:1032500006F0BBFAE7E74FF080430222C3F80423ED
:10326000D2E700BFE8190020D8190020081A002072
:10327000A220002000E100E008B5074806F0B0F801
:1032800038B10648FFF726FE0448FDF737FE002058
:1032900008BD6FF01200FBE7F49B0000A1320000B4
:1032A00038B50D4D04462846FEF7D2FD002810DB48
:1032B0000A2C04D1AB680D215B6828469847AB689F
:1032C00005485B68E1B2984703482122002305F0D6
:1032D0002CFD204638BD00BFF49B0000F0B54068CF
:1032E000057B01F01F0444EA4514056987B0002DF1
:1032F00064D0B2F5001F00F1100506D12146284622
:1033000006F03DF8002007B0F0BD01AE0027B2F591
:10331000800F0197776039D1B3F1007F14BF052387
:1033200004238DF804300023CDE9046303938368FC
:1033300023FA01F111F001011AD1B2F1A07F17D1E6
:1033400004F01F03620903F5E0732AD0012A3BD180
:103350001F4A52F82330DB070AD40DF10306324628
:103360002146284602F090FB1A4B98421CD0029648
:1033700003AA2146284602F049FA174B984220D169
:1033800001222146284602F0E3FBBBE7B3F1C06F00
:1033900005D0B3F1007F14BF01230223C1E703234B
:1033A000BFE74FF0A042D4E73146284602F0CAFBFF
:1033B000094B9842DBD06FF00B00A4E76FF085005B
:1033C000A1E76FF015009EE751F82330FFDE00BF44
:1033D000000300500400AD0B0000AD0B38B545688C
:1033E0002B69B3B11035284602F09CFB044680B926
:1033F0000146284602F062FB084B98420BD108496F
:103400002246284602F03AFB224605210620FFF715
:103410001DFB002038BD6FF00400FBE70000AD0B82
:1034200025340000420970B5034602D0012A17D0A6
:1034300070BD0D4E326951680029F9D003F01F03A9
:1034400001250C689D400029F2D08A682A4002D0EC
:103450004B68304698472CB1236821461C46F2E75A
:10346000024EE7E72346F8E7DC9B0000C49B000020
:103470002DE9F043466840F20635D006337B87B02D
:1034800002EA050554BFC2F34010032001F01F07F4
:10349000B5F5837F144647EA43178DF8030045D0FE
:1034A0000FD8062D18D007D8B5B1022D40D06FF037
:1034B000150007B0BDE8F083B5F5807FF7D1012591
:1034C0000AE040F20222954234D0B5F5407F33D075
:1034D000B5F5007FEBD102250123220303FA01F1A8
:1034E0002CD57368C3F80815326982BB07F01F0337
:1034F0007F0929D0012F77D13E4A02EB830284F461
:103500008033D2F80017C3F30043C4F3404444EAC5
:10351000430421F4E16144EA800421F0070144EA14
:1035200005230B43C2F800370020C2E70725D3E785
:103530000425D1E70525CFE70325CDE7630344BF85
:103540007368C3F80C15CFE74FF0A042D5E71036EB
:103550000DF102023946304602F096FA14F4403F6B
:1035600080460CD13946304605F007FF224B98457E
:10357000DAD19DF80210304602F0DEFAD4E701AB52
:103580004FF0000903AA39463046CDE90439CDE9A8
:103590000199CDF80C9002F039F9174B984286D179
:1035A00014F4003315D09DF803308DF80E3084F4F8
:1035B0008034C4F300444B4603AA394630468DF8A4
:1035C0000C508DF80D4002F0DBF90B4B9842CDD03A
:1035D0006DE7CDE9043303AA0DF103033946304604
:1035E000039302F013F9F0E703F5E07352F8233088
:1035F000FFDE00BF000300500000AD0B036803F0C6
:103600001F025B09026004D0012B034818BF002091
:1036100070474FF0A0407047000300502DE9F04F75
:10362000DFF89491DFF894A185B01546834600EB4E
:10363000810140F2FF18594503D1002005B0BDE8D3
:10364000F08FDBF800305E04C3F3C322C3F3080439
:1036500000F1AC801B0E19F80270444508BF4FF012
:10366000FF34222B00F2A580DFE803F012191F229D
:10367000252B22A3A3A3A33B68A3A3A3A3A3A3A334
:10368000A3A36B818487A3A3A38A9194979A9D0097
:10369000C5F80C45601C5ED10BF1040BCBE7C5F8F7
:1036A0001445621CF8D000265FE0C5F80845F1E734
:1036B000C5F81045F5E7631CC5F80845ECD00026B1
:1036C00004E0661CC5F80C45E6D0012603A8039467
:1036D000FFF794FF039B012202FA03F3C0F80C35B5
:1036E00008E0C5F80845002FDBD1631CD4D00026C4
:1036F00032460627DBF80030019303F4004000282F
:1037000018BF002203A8009218BF01260394FFF7F8
:1037100075FF039C019B009A00EB8400C3F3412CCE
:10372000D0F800473B0243EA8C03134304EA0A043F
:10373000234343EA4603C0F80037ADE7C5F80C451C
:10374000D1E7C5F86045601CDBF80030A4D0C3F3B6
:103750000043002BB9D003A80394FFF74FFF039B4E
:10376000012606FA03F3C0F808353246C2E7C5F869
:103770006445E8E7C5F86845E5E7C5F86C45E2E764
:10378000C5F82445621C87D000220126B2E7C5F89F
:1037900028457FE7C5F83045F4E7C5F83445F1E73B
:1037A000C5F83845EEE7C5F83C4573E76FF01500FE
:1037B00044E76FF0850041E735AB0000F0F8FCFF0F
:1037C000F8B50022054601210220FFF73FF902204B
:1037D000FFF70CF96A6811681369C1F82435137D85
:1037E000507D927D03431343C1F86C356E68D6E972
:1037F000004313F001032BD02F6907F1080005F0F7
:103800003CFD244B98423DD1387A04F10C0204F57A
:10381000907105F028FD387A012707FA00F001F0D1
:10382000C1FD0823C4F80035B369C4F8443500234A
:10383000C4F84835A760D4F85831002BFBD00023DA
:10384000C4F8003528461449BDE8F84005F0B9B978
:103850000822C4F80025B269C4F84425C4F84835E4
:103860000123A360D4F82031002BFBD00023C4F83F
:103870002031D4F820310123E3604FF48073C4F881
:103880000433D8E7054A0648012105F0CCF86FF06B
:103890000400F8BD0000AD0BF99000003DAB000046
:1038A000309E00002DE9F047044647680D4605F0BC
:1038B000EAFE6368D4F81090D3F800804FF0400A15
:1038C00088B92E4A127872B16426606805F0B8FB98
:1038D000F0B9012005F0BAFC013EF6D1002121200B
:1038E00005F073FFF0E7EFF311810E468AF31288BB
:1038F000BFF36F8F606805F0A3FBA8B981F311884F
:10390000BFF36F8FEFE781F31188BFF36F8FE5E7A8
:10391000EFF311810E468AF31288BFF36F8F606850
:1039200005F08EFB0028EED0D9F804301A0706D433
:1039300043F00803C9F804302046FEF789FA4FF433
:103940008003C8F80433BB691D706368BA691B68DB
:103950000021C3F844250122C3F84825C3F82011EB
:10396000D3F82001C3F85811D3F858119A6086F3A0
:103970001188BFF36F8FBDE8F08700BFA220002041
:1039800070B5012383400E4ABFF35B8FDC4352E8DE
:10399000001F01EA040542E80056002EF7D1BFF3EC
:1039A0005B8F4FF4803282400648C0F80823BFF393
:1039B0005F8FBFF36F8F0B4214BF0120002070BDDB
:1039C000681A00200010014070B40E49D1E900349B
:1039D000D01AC31844F1000422F07F46C1E9003434
:1039E000A6F50013B3F5400F09D2074B1B681A0A5E
:1039F0001B069C19054B42F10005C3E9004570BC4C
:103A000003F0B2BCA81100206C1A0020B0110020F5
:103A100011B3BFF35B8F0123104A834052E800CFFC
:103A20004CEA030C42E800C10029F7D1BFF35B8FD9
:103A30000B4A4FF480338340C2F80433094BBFF381
:103A40005B8F1B68BFF35B8FC340DB0742BF064B36
:103A50004FF40032C3F80021704700BF681A0020FD
:103A600000100140641A002000E100E00D4B1868CE
:103A7000010A0006BFF35F8F0B4BD3F8043518180B
:103A800041F10001B3F5801F0AD2084BD3E90023AE
:103A9000904271EB030303D210F1807041F10001F9
:103AA000704700BF6C1A002000100140B0110020C8
:103AB0002DE9F04F85B016461F469DF840A00446FC
:103AC000FFF75EFF0190FFF7D1FFB04271EB0703F4
:103AD00054D23E4B301A67EB0101984271F100015C
:103AE0004FD23B4B03EB0413D3E902239F4208BFA1
:103AF00096425ED037494FF4803804F1500508FAF9
:103B000004F8AD00C1F848832046ADB205F06EFB65
:103B100026F07F4B05F1804504F5A87305F588353F
:103B2000DC464FF003090293029A2CF07F4341F8E0
:103B30002230C1F84483D1F80435274A6FF00200DF
:103B4000C01A604420F07F40904232D9286868B1A2
:103B5000D1F804350393A3EB0B0020F07F40B0F5C0
:103B6000000F26D9204605F041FB039BBAF1000F58
:103B700007D109EB030C09F10109D5E7BAF1000FF0
:103B800009D06FF0150520460199FFF741FF28463F
:103B900005B0BDE8F08F0123104ABFF35B8FA3404F
:103BA00052E8000F184342E800010029F8D1BFF3A2
:103BB0005B8F07490E98230101EB0412C8500F9B3D
:103BC0005360C2E902670025DDE700BF0100800005
:103BD0009811002000100140FDFF7F00641A0020B2
:103BE0007FB51C4C1C4BC4F80833C4F848331B4B3E
:103BF00000254FF0FF304FF0FF31C4F80855C3E9FE
:103C000002014FF48033C4F80433154B02264FF4FD
:103C100000320121C4F804631120C3F880212A4630
:103C2000FEF714FF1120FEF7E1FE0E4A0123A36008
:103C3000236013600C4B0D4A0093CDE9015500231E
:103C40002846FFF735FF3046FFF798FA284604B0BC
:103C500070BD00BF0010014003000F00981100204C
:103C600000E100E0681A0020C9390000FFFF7F0072
:103C70002DE9F7432B4CD4F8043399070BD5D4F82E
:103C8000043143B1284A0023C4F80431D4F8043184
:103C9000136801331360D4F80433DA0323D5BFF378
:103CA0005B8F224B53E8002F22F0010143E8001004
:103CB0000028F7D1BFF35B8FD30702D4D4F840318B
:103CC0008BB10025C4F84051D4F84031FFF7CEFE47
:103CD000EFF3108272B6164BD3E90267B042B941D6
:103CE00004D282F3108803B0BDE8F0834FF0FF38B0
:103CF0004FF0FF39C3E90289D3E900101D604FF48A
:103D00008033C4F84833C4F84051D4F8403182F3CA
:103D100010880029E7D0009032463B462846884765
:103D2000E1E700BF001001406C1A0020641A002077
:103D30009811002030B5431C124C85B005D0844248
:103D4000A8BF0446012CB8BF0124FFF78FFE0E4B1D
:103D50000C4DD3E90013401AB0F5000F10D2221811
:103D6000AA4228BF2A4652184FF000000749009186
:103D7000CDE9010043F10003FFF79AFE05B030BD25
:103D80002A46F0E7FFFF7F00A8110020C939000094
:103D900008B5FFF76BFE024B1B68C01A08BD00BFD9
:103DA000A81100200B4B0C4A1B7AC2F81035042BCB
:103DB0000DD8DFE803F008030C080300074BA0222E
:103DC0001A6001207047054B4FF49672F8E7002007
:103DD000704700BF681B002000100040781A0020C8
:103DE000044A0023C2E908339362034AC2E9083354
:103DF00093627047341B0020081B0020054B1B6892
:103E0000D3F80423920342BF0022C3F84421D3F81D
:103E100044317047A005002038B500280D490E48F0
:103E20000E4D40F2044408BF4FF48064FCF76EF975
:103E300028B900F0DDFE2B68C3F8004238BD084BFE
:103E4000DB7C002B2B680CBF81222822C3F848257D
:103E5000F1E700BF58050020FCA00000A0050020ED
:103E6000681B002008B5094B1B6801225A60DA6004
:103E7000FCF75EF9FCF756F900F0D6FE0320FCF7DC
:103E80005DF9BDE80840FCF73BB900BFA005002084
:103E900007B50B4B0B48DA7C90F90A00002302F5BA
:103EA000166201A9FCF756F99DF80500FCF74CF9DC
:103EB0009DF80420044BC3F80C2503B05DF804FB07
:103EC00088050020681B002000100040EFF31181DE
:103ED000402383F31288BFF36F8F074A936A013B35
:103EE0009362536A0133082B28BF0023536281F386
:103EF0001188BFF36F8F7047341B00202DE9F84302
:103F0000224BDFF88C801A78012A81460F4630D187
:103F100098F80030C3F3050203F03F03202B33D899
:103F20001C4B196A53F821301A701A4D1A492C6A21
:103F300055F824603046013410F8052B05F06FFD6C
:103F4000164B86F80190D3F84835377103F07F039C
:103F5000B37098F80130DB4303F00103F370AB6AF0
:103F6000082C28BF002401332C62AB620120BDE87D
:103F7000F883084A116A52F82120597809B911705A
:103F8000D3E75B7C1370D0E70020F0E7681B0020CC
:103F900055200020081B0020572000200010004062
:103FA000837842781B0443EA022302781343C278E1
:103FB00043EA0253027943EA8253427943EA0263B5
:103FC000827943EA8263C27943EA4273094AC2F8BA
:103FD0001435837A417A1B0443EA0123017A0B43A7
:103FE000C17A43EA0163017B43EA4163C2F81835B1
:103FF000704700BF001000401FB504460D2200218D
:10400000684605F01AFD0A4B00930A4B5B7CE0B250
:10401000013B8DF808008DF809008DF80A306846DC
:1040200001238DF80B30FFF7BBFF04B010BD00BFBC
:1040300000010100880500201FB50023CDF80930DC
:10404000CDF80130CDF8053003238DF8023006237A
:104050008DF800300C4B5B7C013B8DF80A3020233F
:104060008DF80830094B1B7A012293428DF80B2002
:1040700007D18DF805206846FFF792FF05B05DF87F
:1040800004FB042BF5D0F6E788050020681B002010
:10409000F8B55A4B5A4F5B4D3C785B4E01221A6083
:1040A0005A4B5A6A53F822102960002C44D0012C34
:1040B00065D001242B68564D5A78C5F82C255B78BD
:1040C000012707FA03F3DBB2C5F83035514BDA7C30
:1040D000C5F808251433BFF35B8F53E8001F21F0A8
:1040E000010143E80012002AF7D1BFF35B8FFFF70D
:1040F000CFFE494BC5F804650222C3F8802138463B
:10410000FEF774FC0020C5F80401D5F80431C5F8A9
:104110000801D5F80831C5F81001D5F81031C5F8F7
:104120000C012146D5F80C3100F094FD2046FFF734
:1041300073FE3A4B9F61F8BD394B348008781B6899
:104140009847296833780A79304662F3010300F80A
:10415000023B11F8052B05F062FC2D4B40F21B12BF
:10416000C3F800221022C3F804232E4BFA891A60E8
:104170002D4B2E4A1A602E4B02221A7099E7CA78EC
:104180000023338012B1BC7C84F001040B7991F8D8
:1041900000C030785B0003F00603002A08BF43F03C
:1041A0000103727822F0070213436CF305003070AC
:1041B000737011F8052B1F4805F031FC144B1A4998
:1041C0001B4A74B140F21B10C3F800021548FC8969
:1041D000046016480860022111701022C3F80423FD
:1041E00067E740F21310C3F800021348086001218A
:1041F00011701022C3F804235CE700BF7C1A002072
:10420000681B0020601B002077200020341B00204A
:10421000001000408805002000E100E0004001405F
:10422000701A0020801A0020741A0020A94400008F
:10423000992000207920002009440000684620F0E1
:1042400007018D4619B5144BD3F80423D2060BD5BC
:10425000D3F8102142B10022C3F81021D3F8103155
:104260000E4B1B6803B198470B4CD4F804331B0763
:104270000BD5D4F80C3143B1084B1B6803B19847F8
:104280000023C4F80C31D4F80C31FEF793F8BDE8E4
:1042900019408546704700BF00100040741A002086
:1042A000684620F007018D4631B5194B82B01B6876
:1042B0000193EFF31181402383F31288BFF36F8FD3
:1042C000144B00221D681A6081F31188BFF36F8FB1
:1042D000114C2368ABB1E90703D58DF8002068467F
:1042E0009847AA0705D501238DF800306846236852
:1042F00098476B0705D502238DF800306846236880
:104300009847FEF757F802B0BDE831408546704740
:104310007C1A0020841A0020641B00200146C80774
:1043200008B506D5314804F071FF314B00BAC3F827
:104330001C058A0706D52F4804F068FF2C4B00BAED
:10434000C3F820054B070AD52B48294904F05EFF26
:10435000C1F82405294804F059FFC1F828054FF099
:104360008053D3F83021082A3ED1D3F83431052BBD
:104370003AD8234AD35CBBB31C4B224A5B7C052B47
:104380001B4BD3F81C15D3F8200518BF4FF07F4204
:104390004140114228D1D3F82415D3F82825C1F380
:1043A0000720CBB2834214D0C1F30740834210D020
:1043B000B3EB116F0DD0D1B28B420AD0C2F30721FB
:1043C0008B4206D0C2F307418B4202D0B3EB126F8F
:1043D0000AD1074AD2F8743723F0807323F001031F
:1043E00043F08073C2F8743708BD00BF8805002011
:1043F000001000408C05002090050020940500204E
:10440000E2AB00000000FFFF10B5FBF78BFE154B81
:10441000154C1B6801225A60DA6000F005FCFBF7BE
:104420006FFE0021084600F081FC104A1048136816
:1044300043F001031360A36A3BB90E4B00221A70CC
:104440004FF48013C0F8003110BDFFF73FFDA36AA1
:10445000002BF2D04FF48013C0F80031BDE81040BB
:10446000FFF716BEA0050020341B0020841A002090
:1044700000E100E09920002008B5FBF753FE074952
:104480000748FBF749FE074B1A68D2F8003223F4BD
:10449000806323F00403C2F8003208BD58050020F1
:1044A00014A10000A0050020F8B501210020244C33
:1044B000244D254E00F03AFC00F0B6FBFFF7DCFF80
:1044C00040F21313C4F800322B680127DF601F4B42
:1044D0001A6800230D321946284604F052FFF37C77
:1044E000B189002B0CBF8122282228468A1A00237A
:1044F000394604F046FF2B6840F202220025C3F83B
:104500000022C3F84051D3F84021C3F84451D3F8F6
:10451000443100F0C9FC00F0A1FCC4F80C51307823
:10452000D4F80C3110B90A4B1B689847094BC4F8F2
:104530000435094B094A1A60094B03221A70F8BD69
:1045400000100040A0050020681B0020781A002001
:10455000701A002055200020741A0020C945000060
:104560009920002038B50A4C0A4D2368D3F8443509
:104570008133EB6000F03CFB07492846FBF7C6FDA2
:1045800020B9236840F20442C3F8002238BD00BFBE
:10459000A0050020700500205805002008B500F097
:1045A00043FBFBF7BFFD0320FBF7C8FD054B1A6873
:1045B000D2F8003223F4806323F00403C2F80032FF
:1045C00008BD00BFA005002070B500F09FFCFBF700
:1045D000AFFDFBF795FD4F4B4F4AD3F80C11002967
:1045E00043D0D3F80034D9073FD54C4C4C4D236809
:1045F0004C4E43F0010323601268EB899B1A4A4A30
:1046000001331360B36A0BB1FFF760FC2B78B3B1D1
:10461000464B1A78920612D05978454B3D4A9B6A10
:10462000D2F82C05072BC1F3410108D800F0070090
:10463000FFF764FC18B1236843F004032360B26AF7
:104640003C4B12B12A7C012A07D13B4A0021117050
:104650004FF48012C3F8002170BD4FF48012C3F8EC
:104660000021BDE87040FFF713BD1368324E334D93
:10467000591E116083B92A6801215160D160284A0E
:10468000D2890A4428490A6024490A6842F0020291
:104690000A603370274BDBE71E4C0023C4F800315F
:1046A000D4F8003140F21B13C4F80032244B1A68CE
:1046B000244B10781B689847234BC4F80435234BD0
:1046C000234A1A6002233370FFF7E2FBFFF74AFF29
:1046D00000F08AFB2B68D3F84421BAB1D4F85035E6
:1046E000DBB2092BB8D0D4F80041002CB4D1FFF7CD
:1046F00055FF00F0B3FB0121204600F0ABFA01208A
:10470000FFF78AFB134B01229A61A5E701221A6089
:10471000A2E700BF00100040801A0020841A002089
:10472000681B0020341B00207C1A0020552000202C
:10473000081B002000E100E099200020A0050020D7
:10474000601B0020701A002077200020741A0020BF
:10475000A94400000040014010B500F051FCFFF7F3
:1047600081FB134801F0CAFB00F074FC114A1248A7
:10477000D2F8503623F00103C2F850360F4B002414
:104780001C700F4B21461C70FFF72AFB202205F0FE
:1047900054F90C4B01201C605C60FEF735F91420C5
:1047A000FEF732F9BDE810400A20FEF72DB900BF30
:1047B000A005002000100040A01D0020992000202E
:1047C0009A2000204D200020F0B5044685B0002836
:1047D00000F0D5806B4D2B780BB1FFF7BDFF6A4B16
:1047E00062681A60694A234604F110071646186881
:1047F0005968144603C40833BB422246F7D11868EF
:104800002060634B63480024202221461C6005F091
:1048100014F9614B61491C605C60FFF7C3FA33789F
:104820007BB1012B01D15E4B0B60727A5D4B012A8B
:1048300064D0022A07D07AB9C3F83C25C3F83425DE
:1048400008E0594BF0E74FF6FF70C3F83C05C3F89A
:104850003425564AC3F838250B68707C9847514B6D
:10486000534954484FF0E732C3F81C254FF0433208
:10487000C3F82025504AC3F82425504AC3F82825F8
:10488000FFF7AEFA0A4600230133082B40F8042B49
:1048900002F12502F8D14A4A4A4800230133082B85
:1048A00040F8042B02F12502F8D10022464B1446B1
:1048B0000132082A19601C719C6001F1250103F185
:1048C0000C03F5D120220021404805F0B6F8404BFA
:1048D000404A4148019301A9CDE9024401F0DEFAC2
:1048E0003E4A9042034611D100F036FB0446E0B147
:1048F0003B4A3C48012104F096F813E0FF20C3F83E
:104900003C05C3F8342540F20712A3E7364A354880
:10491000012104F091F8354A3248012104F083F86E
:104920006FF00D04204605B0F0BD00F065FB304B84
:104930001C495860D1F85026F37C22F00102134341
:10494000C1F85036012108462246FEF77FF822467C
:1049500002211420FEF77AF8224602210A20FEF7EF
:1049600075F80120FEF742F81420FEF73FF80A2000
:10497000FEF73CF81F4B1C7001232B70D2E76FF041
:104980001504CFE79A200020641B0020681B00203C
:10499000841A0020A01D00204D200020701A002045
:1049A0003940000000100040F93F000021100100D4
:1049B000251F0020341B0020E743C323A363E31318
:1049C000FD1D0020081B0020A81A0020881A0020C6
:1049D00040420F00FD3D0000A00500200000AD0B8F
:1049E000C9AB0000E89D00007AAB0000A3AB00005B
:1049F00058050020992000202DE9F041544B1B78E8
:104A0000002B00F09980002800F09F8003785A1E48
:104A10001F2A00F294804F490A781AB94A7C9A42B8
:104A2000C0F08D804C4B9A6A072A00F28B80427846
:104A3000072A00F28A80EFF31185402282F3128860
:104A4000BFF36F8F4A7822BB1C6A53F8244002469A
:104A500000F1240652F8047B44F8047BB242F9D1F9
:104A60001278227046783D4CA25D013202F00302BA
:104A7000A2551A6A407853F82220205C10711A6AF5
:104A80000132082A28BF00221A629A6A01329A6209
:104A90003AE0334C0022A44694F804E0BEF1000F43
:104AA0002DD10C2757430CEB070601245CF8077047
:104AB0003471C6F808E0044600F1240E54F8048B63
:104AC00047F8048B7445F9D124783C7090F801E0E4
:104AD000224F17F80E40013404F0030407F80E408B
:104AE0000C24624344785CF802203C5D14714478E5
:104AF0001C4850F8242092B940F82460C5E70132E0
:104B0000082A04F10C04C7D185F31188BFF36F8F15
:104B10004B780A7C134308D00020BDE8F081104692
:104B20009268002AFBD18660AFE70F4B1B78002B01
:104B3000F2D1FFF7ADFAEFE76FF00C00EDE76FF0A1
:104B40007900EAE76FF00B00E7E76FF01500E4E7A4
:104B50009A200020681B0020341B00204D200020DC
:104B6000A81A0020881A00209920002010B50A4BAE
:104B70001B7803F0FF0443B950B1084B02681A6078
:104B80000120FFF7CBFB204610BD6FF00F00FBE7C5
:104B90006FF01500F8E700BF99200020880500207D
:104BA00038B5104B1B780C4603F0FF059BB9A8B134
:104BB000082913D80A4601460B4804F030FF0B4A77
:104BC000FF231474C4F10804234104209374FFF7F5
:104BD000A5FB284638BD6FF00F00FBE76FF015000E
:104BE000F8E700BF992000209005002088050020EC
:104BF000094B0A491A78D30003F1804303F5F833CF
:104C0000C3F810150649C3F8141501239340054A4B
:104C1000C2F80435704700BF9D20002018410140B4
:104C200000A0004000F00140084B09491B78012218
:104C30009A40DB0003F1804303F5F833C1F80825FF
:104C40000022C3F81025C3F8142570479D200020CA
:104C500000F00140F0B52B4B2B4C1B782B4FDA00AA
:104C600014442B4A0025C2F81851D2F81821294AB9
:104C700015788000EA00C0B202F1804202F5F832F5
:104C800000F1804000F58050C2F81075C2F814059C
:104C9000214A05F5117042F82040204A2048167834
:104CA000F20002F1804202F5F8320124C2F8100548
:104CB00000F5973000F58470C2F8140504FA06F682
:104CC00004FA05F0304369B1164A174E1178CA004C
:104CD00002F1804202F5F8328C40C2F81075204390
:104CE000C2F814659B0003F1804303F5F8330122F9
:104CF000D3F80018AA400A43C3F80028064BC3F8AB
:104D00000405F0BD9B20002004F001401841014043
:104D1000004001409E20002000F001409C20002027
:104D2000101100409D20002000A00040F0B5294B4C
:104D3000294E1878294B1A78012404FA02F304FA50
:104D400000F51D4300F51177C3004FEAC20C19BBF3
:104D500003F1804303F5F833C6F80855C3F810157E
:104D6000C3F8141546F827100CF1804303F5F83307
:104D7000C3F81015C3F81415194B1B789B0003F1E9
:104D8000804303F5F8330121D3F80028814022EA5B
:104D90000102C3F80028F0BD124A127803F18043E3
:104DA00003F5F833944000212C43C6F80845C3F8B6
:104DB0001015C3F814150CF1804303F5F83346F8C9
:104DC0002710C3F81015C3F81415D30003F180435E
:104DD000CCE700BF9E20002000F001409C20002076
:104DE0009B2000209D200020154B164916480022CC
:104DF000C3F81821D3F81831144B1B78DA0002F1EC
:104E0000804202F5F832C2F8101501F5973101F52C
:104E10008471C2F814150E4A1178CA0002F180425A
:104E200002F5F832C2F810050A48C2F8140501224A
:104E300002FA03F38A401343074AC2F80435704765
:104E4000004001401011004044A100409C2000207F
:104E50009F2000200010004000F001400F4B1A7806
:104E60000F4B1B78012101FA02F09940D200DB00C0
:104E7000014302F180420B4803F1804302F5F8320E
:104E800003F5F833C0F808150021C2F81015C2F870
:104E90001415C3F81015C3F8141570479C20002092
:104EA0009F20002000F00140134B14491B78144848
:104EB000DA0002F1804202F5F832C2F8101501F56D
:104EC0000F410C31C2F814150E4A1178CA0002F1D4
:104ED000804202F5F832C2F81005A0F511403038D2
:104EE000C2F81405012202FA03F38A401343064A6A
:104EF000C2F80435704700BFA12000200411004013
:104F000040A10040A020002000F001400F4B1A7883
:104F10000F4B1B78012101FA02F09940D200DB000F
:104F2000014302F180420B4803F1804302F5F8325D
:104F300003F5F833C0F808150021C2F81015C2F8BF
:104F40001415C3F81015C3F814157047A1200020DC
:104F5000A020002000F0014038B51C481C4D00F096
:104F60002DFFA84204462BD11A4800F027FFA84283
:104F7000044625D1184800F021FFA84204461FD15D
:104F8000164800F01BFFA842044619D1144800F04F
:104F900015FFA842044613D1124800F00FFFA842A3
:104FA00004460DD1104800F023FFA04203460AD06A
:104FB0000E4A0F48012103F03FFD6FF0120038BD8B
:104FC0000C4A2346F5E70020F9E700BF9E200020A9
:104FD0000000AD0B9C2000209D200020A12000207F
:104FE000A02000209F2000209B200020ECAB000090
:104FF000E89D00000EAC0000004870471011004012
:105000000E4B0F491B780978012202FA01F102FACE
:1050100003F30B430B49097802FA01F10B430A49E8
:10502000097802FA01F10B43084909788A401343D1
:10503000074A43F00103C2F8083570479E2000205C
:10504000A02000209C2000209D200020A1200020E6
:1050500000F0014038B5184B187800F0B5FE174B3A
:105060009842044627D1164B187800F0ADFEA042B6
:10507000054620D1134B187800F0A6FEA84204463E
:1050800019D1114B187800F09FFEA042054612D1AD
:105090000E4B187800F098FEA84204460BD10C4B3A
:1050A000187800F091FEA04205D10A4B1878BDE8AF
:1050B000384000F0A3BE38BD9E2000200000AD0B9C
:1050C0009C2000209D200020A1200020A020002066
:1050D0009F2000209B2000204FF08053D3F83021E8
:1050E000082A06D1D3F83431052B02D8024AD05C05
:1050F00070470020704700BF38AC0000024AD2F869
:105100000034002BFBD0704700E0014010B54FF099
:105110008053D3F83021082A4ED14FF0804200212D
:10512000C2F80C11C2F81011C2F8381502F540424D
:10513000D3F80414C2F82015D3F80814C2F82415C3
:10514000D3F80C14C2F82815D3F81014C2F82C1593
:10515000D3F81414C2F83015D3F81814C2F8341563
:10516000D3F81C14C2F84015D3F82014C2F8441523
:10517000D3F82414C2F84815D3F82814C2F84C15F3
:10518000D3F82C14C2F85015D3F83014C2F85415C3
:10519000D3F83414C2F86015D3F83814C2F8641583
:1051A000D3F83C14C2F86815D3F84014C2F86C1553
:1051B000D3F84434C2F87035FFF78EFF18B13A4B7C
:1051C0003A4AC3F88C26FFF787FF18B1384BFB2209
:1051D000C3F81825FFF780FF70B14FF080414FF002
:1051E0008053D1F8E42ED3F8583222F00F0203F0A6
:1051F0000F031343C1F8E43EFFF76EFF20B12D4BC0
:105200004FF40072C3F840264FF08053D3F830318A
:10521000082B1AD14FF08043D3F80024D20744BFA3
:105220006FF00102C3F800244FF08053D3F83431FB
:10523000052B02D8204AD35C3BB14FF01023D3F8A2
:1052400008224FF08043C3F858254FF01023D3F8BD
:105250000022002A03DBD3F80432002B22DA17499C
:1052600001234FF01020C1F804351224FFF746FF48
:10527000C0F80042FFF742FFC0F80442FFF73EFFCC
:105280000023C1F80435FFF739FFBFF34F8F0C49F6
:105290000C4BCA6802F4E0621343CB60BFF34F8F3C
:1052A00000BFFDE710BD00BF005000404881030073
:1052B00000F000400090024032AC000000E00140ED
:1052C00000ED00E00400FA0530B50468CCB1BFF38E
:1052D0005B8FB4FA84F3C3F11F03DBB201229A405F
:1052E00024EA020250E8005FA54204D140E8002C05
:1052F000BCF1000FF6D1BFF35B8FE6D102480B7013
:1053000030BD0248FCE700BF0000AD0B0200AD0B52
:1053100010B50368CB40DB0714D401238B4002682F
:10532000BFF35B8F43EA020150E8004F944204D17F
:1053300040E8001CBCF1000FF6D1BFF35B8FEED14B
:10534000014810BD0148FCE70000AD0B0400AD0BA7
:105350002DE9F04700F160404C1E0444DFF8348032
:105360001F461646050B240BFF234FF0010AA542EA
:1053700001D9BDE8F08718F80510994201F00F0037
:10538000894604D0090932460AFA01F1B8470135C5
:105390004B46ECE73EAC0000014BFFF7D9BF00BF26
:1053A00051920000014BC3F80405704700F0014022
:1053B000F7B50546F8B101281BD104224FF48073DC
:1053C00001464FF0804003440244C0F80813002611
:1053D000012111601E608D421B688DF8071008BF07
:1053E0000DF1070642F210744FF0804745B1012DD0
:1053F00028D003B0F0BD0C224FF482730221E0E705
:10540000D7F8183403F480333EB9002BF1D00120D3
:1054100003F01CFF013CF3D1EBE7D7F8182402F0AE
:1054200003023260002BE4D09DF80700012803D16D
:1054300003F00CFF013CD9D1012DDAD10C4B002235
:105440005A71D6E7D7F80C3403F480333EB9002BF9
:10545000F4D0012003F0FAFE013CF3D1EEE7D7F8D7
:105460000C2402F001023270002BDDD1E6E700BF10
:105470007C1B0020044B1A7922B9012218609A8003
:1054800002487047024870477C1B00200000AD0BAB
:105490000C00AD0B08B5074B1B682BB10020FDF7C6
:1054A000C7FA08B9FDF7A2FA4FF080430022C3F80B
:1054B000182508BD7C1B002010B510B1012843D071
:1054C00010BD4FF08043D3F81814D3F81824C80344
:1054D00021D502F00303012B04D013B10020FFF704
:1054E00067FF00234FF080420220C2F818350822DF
:1054F0004FF4827303F180430021196002F180426E
:105500001C6801241460154A12680AB34FF08043E6
:10551000C3F80403D4E7D3F81424D107E1D5D3F8B2
:105520001C249207DAD40D4A12681AB10222C3F879
:105530000423C5E7D3F80421002AFBD00022C3F8D6
:105540000421D3F80431BBE700224FF48073D1E784
:105550001A68002AFCD019601B68B1E77C1B002088
:10556000F8B54FF080431C4ED3F8044301250027C3
:1055700004B9F8BDB4FA84F0C0F11F00830003F54C
:1055800080739BB203F1804305FA00F2196892B26E
:1055900024EA02040029EBD01F601B684FF080430F
:1055A000012AC3F8082305D0022A08D03368C0B204
:1055B0009847DDE77379002BDAD17271F6E7D3F8FB
:1055C0001814D3F818148907F0D1C3F81855C3F884
:1055D00004239D60CCE700BF7C1B0020036803F020
:1055E0001F025B09026004D0012B034818BF002092
:1055F00070474FF0A040704700030050034A430932
:1056000000F01F00D35C1844C0B270477EAC0000AD
:1056100070B50546FFF7F2FF0C4C08300E4634F823
:105620001030DA0508D5C3F3432304EBC302284640
:1056300054F8333052689847A3682BB1E26831467A
:105640002846BDE87040184770BD00BFA80500207F
:1056500008B5FFF7D3FF034B083033F81000400BB9
:1056600008BD00BFA805002008B5FFF7C7FF034B22
:10567000083033F81000C0F3400008BDA805002032
:1056800008B5FFF7BBFF034B083033F81000C0F339
:10569000401008BDA8050020034611F0010010B518
:1056A000CCB20DD1A207C4F3400012D5094AD2F8FA
:1056B00020055860C2F82005003818BF012008E016
:1056C0004FF0A041D1F820251A60C1F82025002A0A
:1056D000E8D010BD0003005010B5FFF78FFF124A4D
:1056E000083032F81030D9051CD5C3F3432123F418
:1056F000F85322F8103002F10E04002034F8023F73
:1057000013F4807F03D0C3F3432399420AD00130BE
:105710003028F3D1002342F831300448BDE810406E
:10572000FFF7F6BD10BD00BFA80500202006002031
:10573000F0B5054600200446012607468C420BD1F1
:10574000114BD3F87C2132B10022C3F87C21D3F86D
:105750007C3140F00040F0BDE3B29B0003F5807265
:105760009B0806FA03F31D420BD002F1804202F5BA
:10577000C042D2F800C0BCF1000F02D0176012681E
:1057800018430134DAE700BF00600040F7B5064671
:105790000846FFF733FF194F00F108050C4637F8AC
:1057A0001530DB0727D5304603F0C3FD2046FFF751
:1057B00067FF40B12046FFF74BFF316800F5A2704C
:1057C000002341F820302046FFF786FF002301A880
:1057D00027F815300194FFF701FF019B00EB8300D0
:1057E000074BD0F80027134043F00203C0F80037FE
:1057F000044803B0F0BD0448FBE700BFA805002043
:10580000F0F8FCFF0000AD0B0400AD0B2DE9FF41EB
:10581000164680460846FFF7F1FE0D4631680446FD
:1058200009B32846FFF720FF18B12846FFF728FFE5
:1058300010BB0023CDE900338DF80E308DF80F300A
:105840000DF10F020B4628460DF10E0103F019FD74
:10585000474A04F1080132F8113023F0020343F003
:10586000010322F81130736863B328461F78596822
:10587000FFF7FAFE10B1D1B13E4826E03C4A04F1F0
:10588000080032F8103023F02003DB04DB0C22F890
:10589000103061B1032FEFD87168496891F800C0EA
:1058A000D8F80010A7B90CF5A27C41F82C70304A4A
:1058B00004F1080132F8113023F01C0343EA870396
:1058C00022F81130B3684BBB2B4804B0BDE8F0811F
:1058D00001EB8C0143EA4C33D1F810E52EF0030EB6
:1058E000C1F810E5D8F8001001EB8C0E43F020034E
:1058F000DEF8101522F8103021F44F3121F44071F8
:10590000CEF810152902DEF8108501F47C5141EA29
:10591000074141EA0801CEF81015C8E7D3E900674E
:105920002846FFF7D9FE002ECED0114DD5E9002331
:10593000964203D19F4201D1002209E00F480DF1A8
:105940000F01FFF7C1FC0C4B9842BED19DF80F2010
:1059500045F8326005EBC20308345F6035F8143057
:1059600043EA422343F4807325F81430ACE700BFC8
:10597000A80500200400AD0B0000AD0B20060020A0
:105980002DE9F0430C4685B08046204611461E4660
:10599000FFF734FE054629B32046FFF765FE18B928
:1059A0002046FFF76DFE18BB314F05F1080937F8A7
:1059B000193013F01C0F02D04B78012B18D00123A3
:1059C0008DF80F300023CDE900134A1C8B1C2046B4
:1059D0000DF10F0103F055FC37F8193043F00303C4
:1059E00027F81930002E41D02046FFF73DFE18B9A8
:1059F000204805B0BDE8F08396F800C0D8F8003024
:105A00001B4F0CF5A272002143F8221005F1080289
:105A100037F8121021F02001C904C90C27F8121020
:105A200075781DB3D8F80000B67800EB8C002D0413
:105A3000D0F8103523F4991323F4F853C0F8103537
:105A4000230203F47C5305F440353605D0F810E505
:105A50002B4306F4801641EA4C31334341F02001D8
:105A600043EA0E0327F81210C0F810350248C0E7C9
:105A7000A80500200400AD0B0000AD0B014BC3E9ED
:105A800002127047A805002010B508461446FFF71B
:105A9000F7FD50B10846FFF7B1FD054B083033F86C
:105AA000103004485B0B237010BD0348FCE700BFB7
:105AB000A80500200000AD0B0400AD0B70B5164D1D
:105AC00095F8804006462CBB2146602205F1100067
:105AD00003F0B3FF30682E6F21468E420ED10023B3
